:1000000004308A00C92C0000FF00030E8301A10008
:100010000A08A0008A010408A2007708A300780853
:10002000A4007908A5007A08A60003170D08031399
:10003000A70003170F080313A80003170C080313E6
:10004000A90003170E080313AA00831383128B1D44
:100050002B280B184C28220884002308F7002408BA
:10006000F8002508F9002608FA00270803178D0074
:100070000313280803178F000313290803178C00A4
:1000800003132A0803178E00031320088A00210E89
:100090008300FF0E7F0E09008A110A129C29523438
:1000A00061340034563461346F340034D232F33268
:1000B0007410CF250000D337203C651D20180000A8
:1000C0005230840083130008031973280630F800A7
:1000D000F701F70B6928F80B68287B30F700F70B5E
:1000E0006F28800B66280800D2014E08D10003302B
:1000F000D400E830D3001030D500F701FA01D20C5B
:10010000D10C031C89285308F7070318FA0A54086E
:10011000FA07FA0CF70CF90CF80CD50B7F287908C4
:10012000D2007808D1005208D4005108D300D6017B
:10013000B430D500F801F901F701FA015608031DA2
:10014000A42855080319BE281030D7000310D30D7A
:10015000D40DF70DFA0D56087A02031DB128550883
:100160007702031CBA285508F702031CFA03560845
:10017000FA020314F80DF90DD70BA6287808E83E0B
:10018000CF007908D000033003180430D00750089E
:10019000F9004F08F800F90CF80CF90CF80CF90C00
:1001A00078089500F90C790C3039F7001708CF3929
:1001B000770497000800831608108810081183122E
:1001C00088100F3083160805F03888008312081550
:1001D0000000081400000808F700080E0F39F800A6
:1001E0007808D900081000000814F628F728000045
:1001F0000808F700080E0F39F8007808D800081032
:100200000F308316080588008312590EF700F0306E
:10021000F70577085804F8007808D800D81BE128BB
:10022000561C881056188814000008110000081089
:10023000570ED8000F30D8055808D900590EF0399C
:10024000F7000F300805770488000000081402301A
:10025000F700F70B29292C290000081057080F393F
:10026000D8005808D900590EF039F7000F300805AA
:1002700077048800000008140230F700F70B3E29CD
:100280004129000008100800530B47294A29403033
:10029000D4004B29D40101305202D40754088038CD
:1002A000D500D6015508D700DB2008005108073AD1
:1002B000031964290B3A03196929063A03197129AC
:1002C000023A031977297C290130D200D300442156
:1002D0008129D6010130D700DB200230D200602016
:1002E00081290130D2000230D30044218129D60176
:1002F0001030D700DB2081290130D6005108D7000B
:10030000DB2008000130D2000230D3004421CE08A7
:1003100003198E290030FA004F3091290030FA007D
:100320005230CF00D10056210430CF00FA30D20035
:100330006020CF0B962908003230D200602083164F
:10034000061483120618CF292C08093C031CCF2958
:10035000AC0A5A30CE0074200430CE00FA30D200FD
:100360006020CE0BAE29CE0174200B08F7008B1352
:1003700003178D0103132C0803178C0083168C13AD
:100380000C1555308D00AA308D008C148C18C629A0
:100390000C117708831203138B04CE01822183167C
:1003A000861483128618FF29AC080319FF29AC03B1
:1003B0005A30CE0074200430CE00FA30D2006020D3
:1003C000CE0BDD29CE0174200B08F7008B13031729
:1003D0008D0103132C0803178C0083168C130C1546
:1003E00055308D00AA308D008C148C18F5290C1115
:1003F0007708831203138B040130CE008221831609
:10040000061583120619DF2AAC010B08F7008B13BF
:1004100003178D0103132C0803178C0083168C130C
:100420000C1555308D00AA308D008C148C18162AAE
:100430000C117708831203138B040130D200D30010
:100440004421563003178D0000308F0003130B0832
:10045000CE008B13831603178C170C1400000000BA
:1004600083120313CE1B8B1703170C087F39031954
:10047000792A0313CE0003170D080313CF000317C7
:100480000F080313D0004E08D10056214F08031760
:100490008D000313500803178F0003130B08D100BE
:1004A0008B13831603178C170C14000000008312A3
:1004B0000313D11B8B1703170C0D0E0D7F39031976
:1004C000792A0313CE0003170D080313CF00031777
:1004D0000F080313D0004E08D10056214F08031710
:1004E0008D000313500803178F008D0A03198F0A1C
:1004F000262A01300313D2000230D30044215B309E
:1005000003178D0000308F0003130B08CE008B13F0
:10051000831603178C170C140000000083120313BA
:10052000CE1B8B1703170C087F390319D72A031327
:10053000CE0003170D080313CF0003170F08031392
:10054000D0004E08D10056214F0803178D00031329
:10055000500803178F0003130B08D1008B13831669
:1005600003178C170C140000000083120313D11B17
:100570008B1703170C0D0E0D7F390319D72A0313A0
:10058000CE0003170D080313CF0003170F08031342
:10059000D0004E08D10056214F0803178D000313D9
:1005A000500803178F008D0A03198F0A842A04301C
:1005B0000313CE00FA30D2006020CE0BDA2A0B10E3
:1005C0000B108A110A122B28D337203C651DA0126C
:1005D0006400C2204910C4205900C3274E10432490
:1005E0004F00073083168600003087008312AE006C
:1005F00083168800860183128601AE008316870168
:100600008312870183168801831288012830C20073
:100610000C30C3000130C4000630C500081088103B
:1006200008110F308316080588000810881008117B
:100630008312AB018B1BAB178B130F30D2006020E2
:10064000AB1B8B170130C1004108033C031C452B39
:100650000330D900590EF039F7000F300805770440
:100660008800000008140230F700F70B352B382BF8
:1006700000000810AB018B1BAB178B130530D200A9
:100680006020AB1B8B17C10A242B0230D900590EF6
:10069000F039F7000F3008057704880000000814CF
:1006A0000230F700F70B522B552B00000810AB015E
:1006B0008B1BAB178B130530D2006020AB1B8B1745
:1006C000C1014108033C031C772B423041078400E1
:1006D00083130008C600AB018B1BAB178B13D6012D
:1006E0004608D700DB20AB1B8B17C10A612BAB017F
:1006F0008B1BAB178B136430D2006020AB1B8B17A6
:100700002E112E0883168700831207110C309700D4
:1007100083169B019C0101309D000030F8000638D3
:1007200083129200F93083169200FA3083129500FA
:100730001708CF3997008B15FF3083169604C03009
:1007400083128B0403178D0183168C130C148312F0
:100750000C080313AC008A110A12E42C0B08C20027
:100760008B13831603178C170C14000000008312E0
:100770000313C21B8B170318F02B03170C087F39C8
:100780000313C20003170D080313C30003170F0858
:100790000313C4004208C7002F08840083133018D5
:1007A000831747088000840A8001AF0A0319B00A42
:1007B000430803178D000313440803178F00031326
:1007C0000B08C5008B13831603178C170C1400003D
:1007D000000083120313C51B8B17C10BF02B1A2CBF
:1007E00003170C0D0E0D7F390313C20003170D08FC
:1007F0000313C30003170F080313C4004208C70004
:100800002F08840083133018831747088000840A58
:100810008001AF0A0319B00A430803178D000313C0
:10082000440803178F008D0A03198F0A031003135E
:10083000C10BAE2B8A110A12FB2C2030421E303025
:10084000C3004108F700F71F2D2CF709F70A7708B6
:10085000C1002D30C300C217421478084108C700F8
:100860006430C8004808F801470203183A2C4708CA
:10087000F700462CF7010830C900C70DF70D4808EE
:1008800077020318F700F80DC90B3D2C7708C1005B
:1008900030307807C4004108C7000A30C800480853
:1008A000F80147020318572C4708F700632CF7019B
:1008B0000830C900C70DF70D480877020318F70084
:1008C000F80DC90B5A2C30307707C6003030780746
:1008D000C5004308F700303044020319732CC214DA
:1008E000C21B4215872C4308C4002030C30030309F
:1008F000450203197F2C4214C21BC214872C031D0E
:100900004214031D872C4408C5002030C40042193E
:100910008E2CC2189C2C4218AA2CB82C4308C70055
:100920002F08840083133018831747088000840A37
:100930008001AF0A0319B00A4408C7002F088400D9
:1009400083133018831747088000840A8001AF0A98
:100950000319B00A4508C7002F0884008313301814
:10096000831747088000840A8001AF0A0319B00A80
:100970004608C7002F0884008313301883174708E0
:100980008000840A8001AF0A0319B00A8A110A1292
:10099000002D03081F398300AC012D10FF30AE007D
:1009A000B001AF01831603170908C039890003138A
:1009B0001F129F12003003178800831287018801DD
:1009C000890183130313F12AAB018B1BAB178B1324
:1009D0000130D200D3004421AB1B8B17B001313062
:1009E000AF00E43003178D0002308F000310073092
:1009F0000313C100AE2B2C08C1001830C2001D2CFF
:100A0000AB018B1BAB178B133130D1005621AB1BC5
:100A10008B172C08093C03187F2D2D142E102E083F
:100A20008316870083120714AE102E0883168700E2
:100A300083128714AB018B1BAB178B130130D200D1
:100A40000230D3004421AB1B8B17E93003178D0014
:100A500002308F0003130B08CE008B13831603178D
:100A60008C170C140000000083120313CE1B8B178D
:100A700003170C087F3903197D2D0313CE000317CC
:100A80000D080313CF0003170F080313D0004E08FF
:100A9000D10056214F0803178D0003135008031788
:100AA0008F0003130B08D1008B13831603178C17C9
:100AB0000C140000000083120313D11B8B170317C3
:100AC0000C0D0E0D7F3903197D2D0313CE00031776
:100AD0000D080313CF0003170F080313D0004E08AF
:100AE000D10056214F0803178D0003135008031738
:100AF0008F008D0A03198F0A2A2DEF2D03132D1055
:100B00002E102E088316870083120710AE102E08B1
:100B10008316870083128710AB018B1BAB178B13D7
:100B20000130D2000230D3004421AB1B8B17ED30D3
:100B300003178D0002308F0003130B08CE008B13B8
:100B4000831603178C170C14000000008312031384
:100B5000CE1B8B1703170C087F390319EF2D0313D6
:100B6000CE0003170D080313CF0003170F0803135C
:100B7000D0004E08D10056214F0803178D000313F3
:100B8000500803178F0003130B08D1008B13831633
:100B900003178C170C140000000083120313D11BE1
:100BA0008B1703170C0D0E0D7F390319EF2D03134F
:100BB000CE0003170D080313CF0003170F0803130C
:100BC000D0004E08D10056214F0803178D000313A3
:100BD000500803178F008D0A03198F0A9C2D0313E9
:100BE000AB018B1BAB178B13C830D2006020AB1B43
:060BF0008B17E42C6300EA
:04400E00E22FFF3F5F
:00000001FF
;PIC16F887
;CRC=9EF3  CREATED="08-Jul-25 12:51"
